{
  "contractName": "ElectionContract",
  "abi": [
    {
      "inputs": [
        {
          "internalType": "uint256[]",
          "name": "candidateIds",
          "type": "uint256[]"
        },
        {
          "internalType": "string[]",
          "name": "candidateNames",
          "type": "string[]"
        }
      ],
      "stateMutability": "nonpayable",
      "type": "constructor"
    },
    {
      "anonymous": false,
      "inputs": [
        {
          "indexed": true,
          "internalType": "address",
          "name": "_from",
          "type": "address"
        }
      ],
      "name": "contractInitialized",
      "type": "event"
    },
    {
      "anonymous": false,
      "inputs": [
        {
          "indexed": true,
          "internalType": "address",
          "name": "_from",
          "type": "address"
        }
      ],
      "name": "votedEvent",
      "type": "event"
    },
    {
      "anonymous": false,
      "inputs": [
        {
          "indexed": true,
          "internalType": "address",
          "name": "_from",
          "type": "address"
        },
        {
          "indexed": false,
          "internalType": "address",
          "name": "voterAddress",
          "type": "address"
        }
      ],
      "name": "voterMadeEligible",
      "type": "event"
    },
    {
      "anonymous": false,
      "inputs": [
        {
          "indexed": true,
          "internalType": "address",
          "name": "_from",
          "type": "address"
        }
      ],
      "name": "votingProcessFinalized",
      "type": "event"
    },
    {
      "anonymous": false,
      "inputs": [
        {
          "indexed": true,
          "internalType": "address",
          "name": "_from",
          "type": "address"
        }
      ],
      "name": "votingProcessIntialized",
      "type": "event"
    },
    {
      "inputs": [],
      "name": "admin",
      "outputs": [
        {
          "internalType": "address",
          "name": "",
          "type": "address"
        }
      ],
      "stateMutability": "view",
      "type": "function",
      "constant": true
    },
    {
      "inputs": [
        {
          "internalType": "uint256",
          "name": "",
          "type": "uint256"
        }
      ],
      "name": "candidates",
      "outputs": [
        {
          "internalType": "uint256",
          "name": "candId",
          "type": "uint256"
        },
        {
          "internalType": "string",
          "name": "name",
          "type": "string"
        },
        {
          "internalType": "uint256",
          "name": "voteCount",
          "type": "uint256"
        }
      ],
      "stateMutability": "view",
      "type": "function",
      "constant": true
    },
    {
      "inputs": [],
      "name": "currentElectionStatus",
      "outputs": [
        {
          "internalType": "enum ElectionContract.electionStatus",
          "name": "",
          "type": "uint8"
        }
      ],
      "stateMutability": "view",
      "type": "function",
      "constant": true
    },
    {
      "inputs": [
        {
          "internalType": "address",
          "name": "",
          "type": "address"
        }
      ],
      "name": "voters",
      "outputs": [
        {
          "internalType": "bool",
          "name": "eligible",
          "type": "bool"
        },
        {
          "internalType": "bool",
          "name": "voted",
          "type": "bool"
        }
      ],
      "stateMutability": "view",
      "type": "function",
      "constant": true
    },
    {
      "inputs": [
        {
          "internalType": "uint256",
          "name": "",
          "type": "uint256"
        }
      ],
      "name": "winningCandidateIDs",
      "outputs": [
        {
          "internalType": "uint256",
          "name": "",
          "type": "uint256"
        }
      ],
      "stateMutability": "view",
      "type": "function",
      "constant": true
    },
    {
      "inputs": [
        {
          "internalType": "address",
          "name": "voterAddress",
          "type": "address"
        }
      ],
      "name": "makeVoterEligible",
      "outputs": [],
      "stateMutability": "nonpayable",
      "type": "function"
    },
    {
      "inputs": [
        {
          "internalType": "uint256",
          "name": "candidateId",
          "type": "uint256"
        }
      ],
      "name": "vote",
      "outputs": [],
      "stateMutability": "nonpayable",
      "type": "function"
    },
    {
      "inputs": [],
      "name": "getWinnerCandidateIDs",
      "outputs": [
        {
          "internalType": "uint256[]",
          "name": "winnerCandidateIDs",
          "type": "uint256[]"
        }
      ],
      "stateMutability": "view",
      "type": "function",
      "constant": true
    },
    {
      "inputs": [],
      "name": "initializeVotingProcess",
      "outputs": [],
      "stateMutability": "nonpayable",
      "type": "function"
    },
    {
      "inputs": [],
      "name": "finalizeVotingProcess",
      "outputs": [],
      "stateMutability": "nonpayable",
      "type": "function"
    }
  ],
  "bytecode": "0x60806040523480156200001157600080fd5b506040516200250e3803806200250e833981810160405281019062000037919062000566565b60008060006101000a81548160ff0219169083600281111562000083577f4e487b7100000000000000000000000000000000000000000000000000000000600052602160045260246000fd5b021790555033600060016101000a81548173ffffffffffffffffffffffffffffffffffffffff021916908373ffffffffffffffffffffffffffffffffffffffff1602179055506001600360008060019054906101000a900473ffffffffffffffffffffffffffffffffffffffff1673ffffffffffffffffffffffffffffffffffffffff1673ffffffffffffffffffffffffffffffffffffffff16815260200190815260200160002060000160006101000a81548160ff02191690831515021790555080518251146200018c576040517f08c379a0000000000000000000000000000000000000000000000000000000008152600401620001839062000667565b60405180910390fd5b60005b8151811015620002ad5760016040518060600160405280858481518110620001e0577f4e487b7100000000000000000000000000000000000000000000000000000000600052603260045260246000fd5b6020026020010151815260200184848151811062000227577f4e487b7100000000000000000000000000000000000000000000000000000000600052603260045260246000fd5b60200260200101518152602001600081525090806001815401808255809150506001900390600052602060002090600302016000909190919091506000820151816000015560208201518160010190805190602001906200028a929190620002f9565b506040820151816002015550508080620002a490620007d5565b9150506200018f565b503373ffffffffffffffffffffffffffffffffffffffff167f3862dd748e1ca79fcd6f7cfb2a40db495da62a25761b04bdddbb073b0e548cd660405160405180910390a25050620008ca565b82805462000307906200079f565b90600052602060002090601f0160209004810192826200032b576000855562000377565b82601f106200034657805160ff191683800117855562000377565b8280016001018555821562000377579182015b828111156200037657825182559160200191906001019062000359565b5b5090506200038691906200038a565b5090565b5b80821115620003a55760008160009055506001016200038b565b5090565b6000620003c0620003ba84620006bd565b62000689565b9050808382526020820190508260005b85811015620004045781518501620003e9888262000522565b845260208401935060208301925050600181019050620003d0565b5050509392505050565b6000620004256200041f84620006ec565b62000689565b905080838252602082019050828560208602820111156200044557600080fd5b60005b858110156200047957816200045e88826200054f565b84526020840193506020830192505060018101905062000448565b5050509392505050565b60006200049a62000494846200071b565b62000689565b905082815260208101848484011115620004b357600080fd5b620004c084828562000769565b509392505050565b600082601f830112620004da57600080fd5b8151620004ec848260208601620003a9565b91505092915050565b600082601f8301126200050757600080fd5b8151620005198482602086016200040e565b91505092915050565b600082601f8301126200053457600080fd5b81516200054684826020860162000483565b91505092915050565b6000815190506200056081620008b0565b92915050565b600080604083850312156200057a57600080fd5b600083015167ffffffffffffffff8111156200059557600080fd5b620005a385828601620004f5565b925050602083015167ffffffffffffffff811115620005c157600080fd5b620005cf85828601620004c8565b9150509250929050565b6000620005e86047836200074e565b91507f4552524f52203a20417267756d656e747320496e76616c6964203a204964732060008301527f616e64204e616d65732061727261797320617265206e6f74206f662073616d6560208301527f206c656e677468000000000000000000000000000000000000000000000000006040830152606082019050919050565b600060208201905081810360008301526200068281620005d9565b9050919050565b6000604051905081810181811067ffffffffffffffff82111715620006b357620006b262000881565b5b8060405250919050565b600067ffffffffffffffff821115620006db57620006da62000881565b5b602082029050602081019050919050565b600067ffffffffffffffff8211156200070a576200070962000881565b5b602082029050602081019050919050565b600067ffffffffffffffff82111562000739576200073862000881565b5b601f19601f8301169050602081019050919050565b600082825260208201905092915050565b6000819050919050565b60005b83811015620007895780820151818401526020810190506200076c565b8381111562000799576000848401525b50505050565b60006002820490506001821680620007b857607f821691505b60208210811415620007cf57620007ce62000852565b5b50919050565b6000620007e2826200075f565b91507fffffffffffffffffffffffffffffffffffffffffffffffffffffffffffffffff82141562000818576200081762000823565b5b600182019050919050565b7f4e487b7100000000000000000000000000000000000000000000000000000000600052601160045260246000fd5b7f4e487b7100000000000000000000000000000000000000000000000000000000600052602260045260246000fd5b7f4e487b7100000000000000000000000000000000000000000000000000000000600052604160045260246000fd5b620008bb816200075f565b8114620008c757600080fd5b50565b611c3480620008da6000396000f3fe608060405234801561001057600080fd5b506004361061009e5760003560e01c80638988bbdb116100665780638988bbdb1461015d578063a3ec138d14610167578063a94a0c4414610198578063f7a382be146101a2578063f851a440146101be5761009e565b80630121b93f146100a35780633477ee2e146100bf578063387f50df146100f1578063476030971461010f57806388638d581461013f575b600080fd5b6100bd60048036038101906100b8919061101b565b6101dc565b005b6100d960048036038101906100d4919061101b565b610508565b6040516100e89392919061191a565b60405180910390f35b6100f96105ca565b6040516101069190611744565b60405180910390f35b6101296004803603810190610124919061101b565b6105db565b60405161013691906118ff565b60405180910390f35b6101476105ff565b60405161015491906116f9565b60405180910390f35b610165610716565b005b610181600480360381019061017c9190610ff2565b610af3565b60405161018f92919061171b565b60405180910390f35b6101a0610b31565b005b6101bc60048036038101906101b79190610ff2565b610d16565b005b6101c6610fa2565b6040516101d391906116de565b60405180910390f35b60016002811115610216577f4e487b7100000000000000000000000000000000000000000000000000000000600052602160045260246000fd5b60008054906101000a900460ff16600281111561025c577f4e487b7100000000000000000000000000000000000000000000000000000000600052602160045260246000fd5b1461029c576040517f08c379a0000000000000000000000000000000000000000000000000000000008152600401610293906118bf565b60405180910390fd5b6000600360003373ffffffffffffffffffffffffffffffffffffffff1673ffffffffffffffffffffffffffffffffffffffff16815260200190815260200160002090508060000160009054906101000a900460ff16610330576040517f08c379a00000000000000000000000000000000000000000000000000000000081526004016103279061175f565b60405180910390fd5b8060000160019054906101000a900460ff1615610382576040517f08c379a00000000000000000000000000000000000000000000000000000000081526004016103799061185f565b60405180910390fd5b60018160000160016101000a81548160ff02191690831515021790555060005b60018054905081101561047e57600181815481106103e9577f4e487b7100000000000000000000000000000000000000000000000000000000600052603260045260246000fd5b90600052602060002090600302016000015483141561046b57600180828154811061043d577f4e487b7100000000000000000000000000000000000000000000000000000000600052603260045260246000fd5b9060005260206000209060030201600201600082825461045d91906119ad565b925050819055505050610505565b808061047690611ad5565b9150506103a2565b503373ffffffffffffffffffffffffffffffffffffffff167f06640b67015c37470a2bc2e00a76d594f6794fae0d12b9e206bc1bf369fe067660405160405180910390a26000610503576040517f08c379a00000000000000000000000000000000000000000000000000000000081526004016104fa906117df565b60405180910390fd5b505b50565b6001818154811061051857600080fd5b906000526020600020906003020160009150905080600001549080600101805461054190611aa3565b80601f016020809104026020016040519081016040528092919081815260200182805461056d90611aa3565b80156105ba5780601f1061058f576101008083540402835291602001916105ba565b820191906000526020600020905b81548152906001019060200180831161059d57829003601f168201915b5050505050908060020154905083565b60008054906101000a900460ff1681565b600281815481106105eb57600080fd5b906000526020600020016000915090505481565b606060028081111561063a577f4e487b7100000000000000000000000000000000000000000000000000000000600052602160045260246000fd5b60008054906101000a900460ff166002811115610680577f4e487b7100000000000000000000000000000000000000000000000000000000600052602160045260246000fd5b146106c0576040517f08c379a00000000000000000000000000000000000000000000000000000000081526004016106b79061179f565b60405180910390fd5b600280548060200260200160405190810160405280929190818152602001828054801561070c57602002820191906000526020600020905b8154815260200190600101908083116106f8575b5050505050905090565b600060019054906101000a900473ffffffffffffffffffffffffffffffffffffffff1673ffffffffffffffffffffffffffffffffffffffff163373ffffffffffffffffffffffffffffffffffffffff16146107a6576040517f08c379a000000000000000000000000000000000000000000000000000000000815260040161079d9061189f565b60405180910390fd5b600160028111156107e0577f4e487b7100000000000000000000000000000000000000000000000000000000600052602160045260246000fd5b60008054906101000a900460ff166002811115610826577f4e487b7100000000000000000000000000000000000000000000000000000000600052602160045260246000fd5b14610866576040517f08c379a000000000000000000000000000000000000000000000000000000000815260040161085d9061187f565b60405180910390fd5b60026000806101000a81548160ff021916908360028111156108b1577f4e487b7100000000000000000000000000000000000000000000000000000000600052602160045260246000fd5b02179055506000805b60018054905081101561097c578160018281548110610902577f4e487b7100000000000000000000000000000000000000000000000000000000600052603260045260246000fd5b90600052602060002090600302016002015411156109695760018181548110610954577f4e487b7100000000000000000000000000000000000000000000000000000000600052603260045260246000fd5b90600052602060002090600302016002015491505b808061097490611ad5565b9150506108ba565b5060008114156109c1576040517f08c379a00000000000000000000000000000000000000000000000000000000081526004016109b8906118df565b60405180910390fd5b60005b600180549050811015610aac578160018281548110610a0c577f4e487b7100000000000000000000000000000000000000000000000000000000600052603260045260246000fd5b9060005260206000209060030201600201541415610a9957600260018281548110610a60577f4e487b7100000000000000000000000000000000000000000000000000000000600052603260045260246000fd5b90600052602060002090600302016000015490806001815401808255809150506001900390600052602060002001600090919091909150555b8080610aa490611ad5565b9150506109c4565b503373ffffffffffffffffffffffffffffffffffffffff167f475cd9eadc05f50426b7bf70fce07d99e74a25a238cd16848795a7a2abccd34560405160405180910390a250565b60036020528060005260406000206000915090508060000160009054906101000a900460ff16908060000160019054906101000a900460ff16905082565b600060019054906101000a900473ffffffffffffffffffffffffffffffffffffffff1673ffffffffffffffffffffffffffffffffffffffff163373ffffffffffffffffffffffffffffffffffffffff1614610bc1576040517f08c379a0000000000000000000000000000000000000000000000000000000008152600401610bb89061177f565b60405180910390fd5b600280811115610bfa577f4e487b7100000000000000000000000000000000000000000000000000000000600052602160045260246000fd5b60008054906101000a900460ff166002811115610c40577f4e487b7100000000000000000000000000000000000000000000000000000000600052602160045260246000fd5b1415610c81576040517f08c379a0000000000000000000000000000000000000000000000000000000008152600401610c789061183f565b60405180910390fd5b60016000806101000a81548160ff02191690836002811115610ccc577f4e487b7100000000000000000000000000000000000000000000000000000000600052602160045260246000fd5b02179055503373ffffffffffffffffffffffffffffffffffffffff167fb7363468d5742b086f0e4be950b092d52661012da6e7a83dc9ba42452dd29d9460405160405180910390a2565b60006002811115610d50577f4e487b7100000000000000000000000000000000000000000000000000000000600052602160045260246000fd5b60008054906101000a900460ff166002811115610d96577f4e487b7100000000000000000000000000000000000000000000000000000000600052602160045260246000fd5b14610dd6576040517f08c379a0000000000000000000000000000000000000000000000000000000008152600401610dcd906117ff565b60405180910390fd5b600060019054906101000a900473ffffffffffffffffffffffffffffffffffffffff1673ffffffffffffffffffffffffffffffffffffffff163373ffffffffffffffffffffffffffffffffffffffff1614610e66576040517f08c379a0000000000000000000000000000000000000000000000000000000008152600401610e5d9061181f565b60405180910390fd5b600360008273ffffffffffffffffffffffffffffffffffffffff1673ffffffffffffffffffffffffffffffffffffffff16815260200190815260200160002060000160009054906101000a900460ff1615610ef6576040517f08c379a0000000000000000000000000000000000000000000000000000000008152600401610eed906117bf565b60405180910390fd5b6001600360008373ffffffffffffffffffffffffffffffffffffffff1673ffffffffffffffffffffffffffffffffffffffff16815260200190815260200160002060000160006101000a81548160ff0219169083151502179055503373ffffffffffffffffffffffffffffffffffffffff167f3d8339b57365a8246ad17447ed47a6491d816985071398acb7187a65ed59f9c682604051610f9791906116de565b60405180910390a250565b600060019054906101000a900473ffffffffffffffffffffffffffffffffffffffff1681565b600081359050610fd781611bd0565b92915050565b600081359050610fec81611be7565b92915050565b60006020828403121561100457600080fd5b600061101284828501610fc8565b91505092915050565b60006020828403121561102d57600080fd5b600061103b84828501610fdd565b91505092915050565b600061105083836116c0565b60208301905092915050565b61106581611a03565b82525050565b600061107682611968565b611080818561198b565b935061108b83611958565b8060005b838110156110bc5781516110a38882611044565b97506110ae8361197e565b92505060018101905061108f565b5085935050505092915050565b6110d281611a15565b82525050565b6110e181611a5e565b82525050565b60006110f282611973565b6110fc818561199c565b935061110c818560208601611a70565b61111581611bab565b840191505092915050565b600061112d60378361199c565b91507f4552524f52203a20506572736f6e206973206e6f7420656c696769626c65207460008301527f6f20766f746520666f722074686520656c656374696f6e0000000000000000006020830152604082019050919050565b600061119360378361199c565b91507f4552524f52203a2041646d696e20697320616c6c6f77656420746f20696e697460008301527f696174652074686520766f74696e672070726f636573730000000000000000006020830152604082019050919050565b60006111f960498361199c565b91507f4552524f52203a2043616e6e6f74206765742077696e6e65722063616e64696460008301527f6174652064657461696c73206265666f72652074686520656c656374696f6e2060208301527f697320656e6465642e00000000000000000000000000000000000000000000006040830152606082019050919050565b6000611285602f8361199c565b91507f494e464f203a205468697320706572736f6e20697320616c726561647920656c60008301527f696769626c6520746f20766f74652e00000000000000000000000000000000006020830152604082019050919050565b60006112eb60418361199c565b91507f4552524f52203a20496e76616c69642063616e64696461746520496420656e7460008301527f65726564207768696c6520766f74696e6720696e2074686520656c656374696f60208301527f6e000000000000000000000000000000000000000000000000000000000000006040830152606082019050919050565b600061137760448361199c565b91507f4552524f52203a2043616e6e6f74206d616b65206120766f74657220656c696760008301527f69626c652061667465722074686520656c656374696f6e20686173207374617260208301527f7465642e000000000000000000000000000000000000000000000000000000006040830152606082019050919050565b6000611403603b8361199c565b91507f4552524f52203a2041646d696e20697320616c6c6f77656420746f206d616b6560008301527f206120706572736f6e20656c696769626c6520746f20766f74652e00000000006020830152604082019050919050565b600061146960408361199c565b91507f4552524f52203a2054686520456c636574696f6e2063616e206e6f742062652060008301527f7374617274656420616761696e20616674657220697420697320656e6465642e6020830152604082019050919050565b60006114cf60358361199c565b91507f4552524f52203a205468697320766f7465722068617320766f7465642065617260008301527f6c69657220696e2074686520656c656374696f6e2e00000000000000000000006020830152604082019050919050565b600061153560258361199c565b91507f4552524f52203a20456c656374696f6e20686173206e6f74207374617274656460008301527f207965742e0000000000000000000000000000000000000000000000000000006020830152604082019050919050565b600061159b60378361199c565b91507f4552524f52203a2041646d696e20697320616c6c6f77656420746f2066696e6160008301527f6c697a652074686520766f74696e672070726f636573730000000000000000006020830152604082019050919050565b600061160160308361199c565b91507f4552524f52203a2043616e6e6f7420766f7465206265666f7265206f7220616660008301527f7465722074686520656c656374696f6e000000000000000000000000000000006020830152604082019050919050565b600061166760368361199c565b91507f4552524f52203a204e6f20766f7465722068617320766f74656420796574206960008301527f6e2074686520656c656374696f6e20736f206661722e000000000000000000006020830152604082019050919050565b6116c981611a54565b82525050565b6116d881611a54565b82525050565b60006020820190506116f3600083018461105c565b92915050565b60006020820190508181036000830152611713818461106b565b905092915050565b600060408201905061173060008301856110c9565b61173d60208301846110c9565b9392505050565b600060208201905061175960008301846110d8565b92915050565b6000602082019050818103600083015261177881611120565b9050919050565b6000602082019050818103600083015261179881611186565b9050919050565b600060208201905081810360008301526117b8816111ec565b9050919050565b600060208201905081810360008301526117d881611278565b9050919050565b600060208201905081810360008301526117f8816112de565b9050919050565b600060208201905081810360008301526118188161136a565b9050919050565b60006020820190508181036000830152611838816113f6565b9050919050565b600060208201905081810360008301526118588161145c565b9050919050565b60006020820190508181036000830152611878816114c2565b9050919050565b6000602082019050818103600083015261189881611528565b9050919050565b600060208201905081810360008301526118b88161158e565b9050919050565b600060208201905081810360008301526118d8816115f4565b9050919050565b600060208201905081810360008301526118f88161165a565b9050919050565b600060208201905061191460008301846116cf565b92915050565b600060608201905061192f60008301866116cf565b818103602083015261194181856110e7565b905061195060408301846116cf565b949350505050565b6000819050602082019050919050565b600081519050919050565b600081519050919050565b6000602082019050919050565b600082825260208201905092915050565b600082825260208201905092915050565b60006119b882611a54565b91506119c383611a54565b9250827fffffffffffffffffffffffffffffffffffffffffffffffffffffffffffffffff038211156119f8576119f7611b1e565b5b828201905092915050565b6000611a0e82611a34565b9050919050565b60008115159050919050565b6000819050611a2f82611bbc565b919050565b600073ffffffffffffffffffffffffffffffffffffffff82169050919050565b6000819050919050565b6000611a6982611a21565b9050919050565b60005b83811015611a8e578082015181840152602081019050611a73565b83811115611a9d576000848401525b50505050565b60006002820490506001821680611abb57607f821691505b60208210811415611acf57611ace611b7c565b5b50919050565b6000611ae082611a54565b91507fffffffffffffffffffffffffffffffffffffffffffffffffffffffffffffffff821415611b1357611b12611b1e565b5b600182019050919050565b7f4e487b7100000000000000000000000000000000000000000000000000000000600052601160045260246000fd5b7f4e487b7100000000000000000000000000000000000000000000000000000000600052602160045260246000fd5b7f4e487b7100000000000000000000000000000000000000000000000000000000600052602260045260246000fd5b6000601f19601f8301169050919050565b60038110611bcd57611bcc611b4d565b5b50565b611bd981611a03565b8114611be457600080fd5b50565b611bf081611a54565b8114611bfb57600080fd5b5056fea264697066735822122092a56284d8e349b980d6b12ca9a9e3036f51ae4ed9b1fc3b040e22533b39f8fd64736f6c63430008000033",
  "immutableReferences": {},
  "source": "// SPDX-License-Identifier: GPL-3.0\r\npragma solidity >=0.7.0 <0.9.0;\r\npragma experimental ABIEncoderV2;\r\n\r\n/// @title SecurElect Election Smart Contract\r\ncontract ElectionContract {\r\n    enum electionStatus {beforeStart, started, ended}\r\n    electionStatus public currentElectionStatus;\r\n\r\n    address public admin;\r\n\r\n    // Structure definition of the candidate\r\n    struct Candidate {\r\n        uint256 candId;\r\n        string name; // name of the candidate\r\n        uint256 voteCount; // number of votes candidate has\r\n    }\r\n\r\n    // Array of candidates.\r\n    // Array size is dynamic so that we can use the contract for different elcetions\r\n    Candidate[] public candidates;\r\n    uint256[] public winningCandidateIDs;\r\n\r\n    // Structure definition of the voter\r\n    struct Voter {\r\n        bool eligible; // if true, then the person is eligible to vote\r\n        bool voted; // if true, then the voter has already voted\r\n    }\r\n\r\n    // Mapping of addresses(public keys) and voters.\r\n    // We can access elements of 'Voter' structure by the address of the voter\r\n    mapping(address => Voter) public voters;\r\n\r\n    // event to be emitted after successful initialization\r\n    event contractInitialized(address indexed _from);\r\n\r\n    // voter made eligible events\r\n    event voterMadeEligible(address indexed _from, address voterAddress);\r\n\r\n    // voted event when vote is casted successfully\r\n    event votedEvent(address indexed _from);\r\n\r\n    // Event for initialized voting process\r\n    event votingProcessIntialized(address indexed _from);\r\n\r\n    // Event for finalized voting process\r\n    event votingProcessFinalized(address indexed _from);\r\n\r\n    // constructor of election contract\r\n    // candidates names are taken dynamically so that we can use the contract for different elcetions\r\n    constructor(uint256[] memory candidateIds, string[] memory candidateNames) {\r\n        currentElectionStatus = electionStatus.beforeStart; // The has not started while generating the contract\r\n        admin = msg.sender;\r\n        voters[admin].eligible = true; // Admin can also vote in the election\r\n\r\n        require(\r\n            candidateIds.length == candidateNames.length,\r\n            \"ERROR : Arguments Invalid : Ids and Names arrays are not of same length\"\r\n        );\r\n        // Adding objects of the candidates in the array from the givan names.\r\n        for (uint256 i = 0; i < candidateNames.length; i++) {\r\n            candidates.push(\r\n                Candidate({\r\n                    candId: candidateIds[i],\r\n                    name: candidateNames[i],\r\n                    voteCount: 0\r\n                })\r\n            );\r\n        }\r\n        // Construction Successful.\r\n        emit contractInitialized(msg.sender);\r\n    }\r\n\r\n    // Making the voter eligible to vote for the election\r\n    function makeVoterEligible(address voterAddress) public {\r\n        // Admin can make voter eligible only before the election is started\r\n        require(\r\n            currentElectionStatus == electionStatus.beforeStart,\r\n            \"ERROR : Cannot make a voter eligible after the election has started.\"\r\n        );\r\n\r\n        // Message sender must be admin because only admin can make a person eligible for voting\r\n        require(\r\n            msg.sender == admin,\r\n            \"ERROR : Admin is allowed to make a person eligible to vote.\"\r\n        );\r\n        // require(\r\n        //     !voters[voterAddress].voted,\r\n        //     \"ERROR : This voter has voted in this election.\"\r\n        // );\r\n        // Redundancy commented\r\n        require(\r\n            !voters[voterAddress].eligible,\r\n            \"INFO : This person is already eligible to vote.\"\r\n        );\r\n        voters[voterAddress].eligible = true; // Making voter Eligible to vote\r\n    \r\n        // successfully made voter eligible\r\n        emit voterMadeEligible(msg.sender, voterAddress);\r\n    }\r\n\r\n    // Voting function\r\n    function vote(uint256 candidateId) public {\r\n        // Voter can only vote after the elction has started and before ended\r\n        require(\r\n            currentElectionStatus == electionStatus.started,\r\n            \"ERROR : Cannot vote before or after the election\"\r\n        );\r\n\r\n        Voter storage voteSender = voters[msg.sender];\r\n        require(\r\n            voteSender.eligible,\r\n            \"ERROR : Person is not eligible to vote for the election\"\r\n        );\r\n        require(\r\n            !voteSender.voted,\r\n            \"ERROR : This voter has voted earlier in the election.\"\r\n        );\r\n        voteSender.voted = true; // Making sure that one voter only votes once.\r\n\r\n        for (uint256 j = 0; j < candidates.length; j++) {\r\n            if (candidateId == candidates[j].candId) {\r\n                candidates[j].voteCount += 1;\r\n                return;\r\n            }\r\n        }\r\n\r\n        emit votedEvent(msg.sender); // Voted successfully event\r\n\r\n        require(\r\n            false,\r\n            \"ERROR : Invalid candidate Id entered while voting in the election\"\r\n        ); // Program reaches here only when invalid ID is entered.\r\n    }\r\n\r\n    // returning the candidate details of the winner.\r\n    function getWinnerCandidateIDs()\r\n        public\r\n        view\r\n        returns (uint256[] memory winnerCandidateIDs)\r\n    {\r\n        // Winner candidate can be get only when the election is ended.\r\n        require(\r\n            currentElectionStatus == electionStatus.ended,\r\n            \"ERROR : Cannot get winner candidate details before the election is ended.\"\r\n        );\r\n\r\n        winnerCandidateIDs = winningCandidateIDs;\r\n    }\r\n\r\n    // changing the status of election from 'beforeStart' to 'started'\r\n    function initializeVotingProcess() public {\r\n        // Message sender must be admin because only admin can initiate the voting process\r\n        require(\r\n            msg.sender == admin,\r\n            \"ERROR : Admin is allowed to initiate the voting process\"\r\n        );\r\n\r\n        // Election must not be ended.\r\n        require(\r\n            currentElectionStatus != electionStatus.ended,\r\n            \"ERROR : The Elcetion can not be started again after it is ended.\"\r\n        );\r\n        currentElectionStatus = electionStatus.started;\r\n\r\n        emit votingProcessIntialized(msg.sender);  // successfully initialized voting process\r\n    }\r\n\r\n    // changing the status of election status from 'started' to 'ended'\r\n    // Comparing the voteCount of canidates and setting the winner candidateId\r\n    function finalizeVotingProcess() public {\r\n        // Message sender must be admin because only admin can finalize the voting process\r\n        require(\r\n            msg.sender == admin,\r\n            \"ERROR : Admin is allowed to finalize the voting process\"\r\n        );\r\n\r\n        require(\r\n            currentElectionStatus == electionStatus.started,\r\n            \"ERROR : Election has not started yet.\"\r\n        );\r\n        currentElectionStatus = electionStatus.ended;\r\n\r\n        //uint256 maxVoteCandIndex; // to track the index of maximum voted candidate\r\n        uint256 maxVoteCount = 0; // to keep track of maximum votes so far\r\n\r\n        // Finding the maximum votes and its candidate index\r\n        for (uint256 k = 0; k < candidates.length; k++) {\r\n            if (candidates[k].voteCount > maxVoteCount) {\r\n                maxVoteCount = candidates[k].voteCount;\r\n                //maxVoteCandIndex = k;\r\n            }\r\n        }\r\n\r\n        require(\r\n            maxVoteCount != 0,\r\n            \"ERROR : No voter has voted yet in the election so far.\"\r\n        );\r\n\r\n        //winningCandidateId = maxVoteCandIndex;\r\n\r\n        // Loop is used to handle \"TIE\" condition between multiple candidates.\r\n        // Adding candidate IDs to the winning list.\r\n        for (uint256 l = 0; l < candidates.length; l++) {\r\n            if (candidates[l].voteCount == maxVoteCount) {\r\n                winningCandidateIDs.push(candidates[l].candId);\r\n            }\r\n        }\r\n\r\n        emit votingProcessFinalized(msg.sender);  // successfully finalized voting process\r\n    }\r\n}\r\n",
  "sourcePath": "D:/GITHUB_REPO/Blockchain_Based_Election_System/Blockchain_Based_Election_System/SecurElect/smart-contracts/contracts/ElectionContract.sol",
  "compiler": {
    "name": "solc",
    "version": "0.8.0+commit.c7dfd78e.Emscripten.clang"
  },
  "schemaVersion": "3.3.3",
  "updatedAt": "2021-02-16T14:04:14.260Z",
  "networkType": "ethereum",
  "devdoc": {
    "kind": "dev",
    "methods": {},
    "title": "SecurElect Election Smart Contract",
    "version": 1
  },
  "userdoc": {
    "kind": "user",
    "methods": {},
    "version": 1
  }
}