{
  "contractName": "ElectionContract",
  "abi": [
    {
      "inputs": [],
      "stateMutability": "nonpayable",
      "type": "constructor"
    },
    {
      "anonymous": false,
      "inputs": [
        {
          "indexed": true,
          "internalType": "address",
          "name": "_from",
          "type": "address"
        },
        {
          "indexed": false,
          "internalType": "string[]",
          "name": "candidateIds",
          "type": "string[]"
        },
        {
          "indexed": false,
          "internalType": "string[]",
          "name": "candidateNames",
          "type": "string[]"
        }
      ],
      "name": "candidatesAdded",
      "type": "event"
    },
    {
      "anonymous": false,
      "inputs": [
        {
          "indexed": true,
          "internalType": "address",
          "name": "_from",
          "type": "address"
        }
      ],
      "name": "contractInitialized",
      "type": "event"
    },
    {
      "anonymous": false,
      "inputs": [
        {
          "indexed": true,
          "internalType": "address",
          "name": "_from",
          "type": "address"
        }
      ],
      "name": "votedEvent",
      "type": "event"
    },
    {
      "anonymous": false,
      "inputs": [
        {
          "indexed": true,
          "internalType": "address",
          "name": "_from",
          "type": "address"
        },
        {
          "indexed": false,
          "internalType": "address",
          "name": "voterAddress",
          "type": "address"
        }
      ],
      "name": "voterMadeEligible",
      "type": "event"
    },
    {
      "anonymous": false,
      "inputs": [
        {
          "indexed": true,
          "internalType": "address",
          "name": "_from",
          "type": "address"
        }
      ],
      "name": "votingProcessFinalized",
      "type": "event"
    },
    {
      "anonymous": false,
      "inputs": [
        {
          "indexed": true,
          "internalType": "address",
          "name": "_from",
          "type": "address"
        }
      ],
      "name": "votingProcessIntialized",
      "type": "event"
    },
    {
      "inputs": [],
      "name": "admin",
      "outputs": [
        {
          "internalType": "address",
          "name": "",
          "type": "address"
        }
      ],
      "stateMutability": "view",
      "type": "function",
      "constant": true
    },
    {
      "inputs": [],
      "name": "currentElectionStatus",
      "outputs": [
        {
          "internalType": "enum ElectionContract.electionStatus",
          "name": "",
          "type": "uint8"
        }
      ],
      "stateMutability": "view",
      "type": "function",
      "constant": true
    },
    {
      "inputs": [
        {
          "internalType": "address",
          "name": "",
          "type": "address"
        }
      ],
      "name": "voters",
      "outputs": [
        {
          "internalType": "bool",
          "name": "eligible",
          "type": "bool"
        },
        {
          "internalType": "bool",
          "name": "voted",
          "type": "bool"
        }
      ],
      "stateMutability": "view",
      "type": "function",
      "constant": true
    },
    {
      "inputs": [
        {
          "internalType": "string[]",
          "name": "candidateIds",
          "type": "string[]"
        },
        {
          "internalType": "string[]",
          "name": "candidateNames",
          "type": "string[]"
        }
      ],
      "name": "addCandidateForElection",
      "outputs": [],
      "stateMutability": "nonpayable",
      "type": "function"
    },
    {
      "inputs": [
        {
          "internalType": "address",
          "name": "voterAddress",
          "type": "address"
        }
      ],
      "name": "makeVoterEligible",
      "outputs": [],
      "stateMutability": "nonpayable",
      "type": "function"
    },
    {
      "inputs": [
        {
          "internalType": "string",
          "name": "candidateId",
          "type": "string"
        }
      ],
      "name": "vote",
      "outputs": [],
      "stateMutability": "nonpayable",
      "type": "function"
    },
    {
      "inputs": [],
      "name": "getCandidateDetails",
      "outputs": [
        {
          "components": [
            {
              "internalType": "string",
              "name": "candId",
              "type": "string"
            },
            {
              "internalType": "string",
              "name": "name",
              "type": "string"
            },
            {
              "internalType": "uint256",
              "name": "voteCount",
              "type": "uint256"
            }
          ],
          "internalType": "struct ElectionContract.Candidate[]",
          "name": "candidateDetails",
          "type": "tuple[]"
        }
      ],
      "stateMutability": "view",
      "type": "function",
      "constant": true
    },
    {
      "inputs": [],
      "name": "getWinnerCandidateDetails",
      "outputs": [
        {
          "components": [
            {
              "internalType": "string",
              "name": "candId",
              "type": "string"
            },
            {
              "internalType": "string",
              "name": "name",
              "type": "string"
            },
            {
              "internalType": "uint256",
              "name": "voteCount",
              "type": "uint256"
            }
          ],
          "internalType": "struct ElectionContract.Candidate[]",
          "name": "winnerCandidates",
          "type": "tuple[]"
        }
      ],
      "stateMutability": "view",
      "type": "function",
      "constant": true
    },
    {
      "inputs": [],
      "name": "initializeVotingProcess",
      "outputs": [],
      "stateMutability": "nonpayable",
      "type": "function"
    },
    {
      "inputs": [],
      "name": "finalizeVotingProcess",
      "outputs": [],
      "stateMutability": "nonpayable",
      "type": "function"
    }
  ],
  "bytecode": "0x608060405234801561001057600080fd5b5033600060016101000a81548173ffffffffffffffffffffffffffffffffffffffff021916908373ffffffffffffffffffffffffffffffffffffffff1602179055506001600360008060019054906101000a900473ffffffffffffffffffffffffffffffffffffffff1673ffffffffffffffffffffffffffffffffffffffff1673ffffffffffffffffffffffffffffffffffffffff16815260200190815260200160002060000160006101000a81548160ff02191690831515021790555060008060006101000a81548160ff02191690836003811115610119577f4e487b7100000000000000000000000000000000000000000000000000000000600052602160045260246000fd5b02179055503373ffffffffffffffffffffffffffffffffffffffff167f3862dd748e1ca79fcd6f7cfb2a40db495da62a25761b04bdddbb073b0e548cd660405160405180910390a2612894806101706000396000f3fe608060405234801561001057600080fd5b506004361061009e5760003560e01c8063a3ec138d11610066578063a3ec138d14610123578063a94a0c4414610154578063f7a382be1461015e578063f851a4401461017a578063fc36e15b146101985761009e565b806330de413c146100a3578063387f50df146100bf57806351dd4aa8146100dd5780635a260876146100fb5780638988bbdb14610119575b600080fd5b6100bd60048036038101906100b891906117a3565b6101b4565b005b6100c7610459565b6040516100d4919061227f565b60405180910390f35b6100e561046a565b6040516100f29190612234565b60405180910390f35b6101036106b6565b6040516101109190612234565b60405180910390f35b610121610902565b005b61013d6004803603810190610138919061177a565b610d2a565b60405161014b929190612256565b60405180910390f35b61015c610d68565b005b6101786004803603810190610173919061177a565b610f4d565b005b6101826111d9565b60405161018f91906121e2565b60405180910390f35b6101b260048036038101906101ad919061180f565b6111ff565b005b600060019054906101000a900473ffffffffffffffffffffffffffffffffffffffff1673ffffffffffffffffffffffffffffffffffffffff163373ffffffffffffffffffffffffffffffffffffffff1614610244576040517f08c379a000000000000000000000000000000000000000000000000000000000815260040161023b9061235a565b60405180910390fd5b8051825114610288576040517f08c379a000000000000000000000000000000000000000000000000000000000815260040161027f906122fa565b60405180910390fd5b60005b81518110156103b457600160405180606001604052808584815181106102da577f4e487b7100000000000000000000000000000000000000000000000000000000600052603260045260246000fd5b60200260200101518152602001848481518110610320577f4e487b7100000000000000000000000000000000000000000000000000000000600052603260045260246000fd5b60200260200101518152602001600081525090806001815401808255809150506001900390600052602060002090600302016000909190919091506000820151816000019080519060200190610377929190611546565b506020820151816001019080519060200190610394929190611546565b5060408201518160020155505080806103ac9061271d565b91505061028b565b5060016000806101000a81548160ff02191690836003811115610400577f4e487b7100000000000000000000000000000000000000000000000000000000600052602160045260246000fd5b02179055503373ffffffffffffffffffffffffffffffffffffffff167f476c44a97900ee5b4bdaf92b4e36260713e503296e2d9e3b5cdc94a5c150d053838360405161044d9291906121fd565b60405180910390a25050565b60008054906101000a900460ff1681565b60606003808111156104a5577f4e487b7100000000000000000000000000000000000000000000000000000000600052602160045260246000fd5b60008054906101000a900460ff1660038111156104eb577f4e487b7100000000000000000000000000000000000000000000000000000000600052602160045260246000fd5b1461052b576040517f08c379a0000000000000000000000000000000000000000000000000000000008152600401610522906122da565b60405180910390fd5b6002805480602002602001604051908101604052809291908181526020016000905b828210156106ad5783829060005260206000209060030201604051806060016040529081600082018054610580906126eb565b80601f01602080910402602001604051908101604052809291908181526020018280546105ac906126eb565b80156105f95780601f106105ce576101008083540402835291602001916105f9565b820191906000526020600020905b8154815290600101906020018083116105dc57829003601f168201915b50505050508152602001600182018054610612906126eb565b80601f016020809104026020016040519081016040528092919081815260200182805461063e906126eb565b801561068b5780601f106106605761010080835404028352916020019161068b565b820191906000526020600020905b81548152906001019060200180831161066e57829003601f168201915b505050505081526020016002820154815250508152602001906001019061054d565b50505050905090565b60606003808111156106f1577f4e487b7100000000000000000000000000000000000000000000000000000000600052602160045260246000fd5b60008054906101000a900460ff166003811115610737577f4e487b7100000000000000000000000000000000000000000000000000000000600052602160045260246000fd5b14610777576040517f08c379a000000000000000000000000000000000000000000000000000000000815260040161076e9061243a565b60405180910390fd5b6001805480602002602001604051908101604052809291908181526020016000905b828210156108f957838290600052602060002090600302016040518060600160405290816000820180546107cc906126eb565b80601f01602080910402602001604051908101604052809291908181526020018280546107f8906126eb565b80156108455780601f1061081a57610100808354040283529160200191610845565b820191906000526020600020905b81548152906001019060200180831161082857829003601f168201915b5050505050815260200160018201805461085e906126eb565b80601f016020809104026020016040519081016040528092919081815260200182805461088a906126eb565b80156108d75780601f106108ac576101008083540402835291602001916108d7565b820191906000526020600020905b8154815290600101906020018083116108ba57829003601f168201915b5050505050815260200160028201548152505081526020019060010190610799565b50505050905090565b600060019054906101000a900473ffffffffffffffffffffffffffffffffffffffff1673ffffffffffffffffffffffffffffffffffffffff163373ffffffffffffffffffffffffffffffffffffffff1614610992576040517f08c379a00000000000000000000000000000000000000000000000000000000081526004016109899061241a565b60405180910390fd5b600260038111156109cc577f4e487b7100000000000000000000000000000000000000000000000000000000600052602160045260246000fd5b60008054906101000a900460ff166003811115610a12577f4e487b7100000000000000000000000000000000000000000000000000000000600052602160045260246000fd5b14610a52576040517f08c379a0000000000000000000000000000000000000000000000000000000008152600401610a49906123fa565b60405180910390fd5b60036000806101000a81548160ff02191690836003811115610a9d577f4e487b7100000000000000000000000000000000000000000000000000000000600052602160045260246000fd5b02179055506000805b600180549050811015610b68578160018281548110610aee577f4e487b7100000000000000000000000000000000000000000000000000000000600052603260045260246000fd5b9060005260206000209060030201600201541115610b555760018181548110610b40577f4e487b7100000000000000000000000000000000000000000000000000000000600052603260045260246000fd5b90600052602060002090600302016002015491505b8080610b609061271d565b915050610aa6565b506000811415610bad576040517f08c379a0000000000000000000000000000000000000000000000000000000008152600401610ba49061247a565b60405180910390fd5b60005b600180549050811015610ce3578160018281548110610bf8577f4e487b7100000000000000000000000000000000000000000000000000000000600052603260045260246000fd5b9060005260206000209060030201600201541415610cd057600260018281548110610c4c577f4e487b7100000000000000000000000000000000000000000000000000000000600052603260045260246000fd5b906000526020600020906003020190806001815401808255809150506001900390600052602060002090600302016000909190919091506000820181600001908054610c97906126eb565b610ca29291906115cc565b506001820181600101908054610cb7906126eb565b610cc29291906115cc565b506002820154816002015550505b8080610cdb9061271d565b915050610bb0565b503373ffffffffffffffffffffffffffffffffffffffff167f475cd9eadc05f50426b7bf70fce07d99e74a25a238cd16848795a7a2abccd34560405160405180910390a250565b60036020528060005260406000206000915090508060000160009054906101000a900460ff16908060000160019054906101000a900460ff16905082565b600060019054906101000a900473ffffffffffffffffffffffffffffffffffffffff1673ffffffffffffffffffffffffffffffffffffffff163373ffffffffffffffffffffffffffffffffffffffff1614610df8576040517f08c379a0000000000000000000000000000000000000000000000000000000008152600401610def906122ba565b60405180910390fd5b600380811115610e31577f4e487b7100000000000000000000000000000000000000000000000000000000600052602160045260246000fd5b60008054906101000a900460ff166003811115610e77577f4e487b7100000000000000000000000000000000000000000000000000000000600052602160045260246000fd5b1415610eb8576040517f08c379a0000000000000000000000000000000000000000000000000000000008152600401610eaf906123ba565b60405180910390fd5b60026000806101000a81548160ff02191690836003811115610f03577f4e487b7100000000000000000000000000000000000000000000000000000000600052602160045260246000fd5b02179055503373ffffffffffffffffffffffffffffffffffffffff167fb7363468d5742b086f0e4be950b092d52661012da6e7a83dc9ba42452dd29d9460405160405180910390a2565b60016003811115610f87577f4e487b7100000000000000000000000000000000000000000000000000000000600052602160045260246000fd5b60008054906101000a900460ff166003811115610fcd577f4e487b7100000000000000000000000000000000000000000000000000000000600052602160045260246000fd5b1461100d576040517f08c379a00000000000000000000000000000000000000000000000000000000081526004016110049061237a565b60405180910390fd5b600060019054906101000a900473ffffffffffffffffffffffffffffffffffffffff1673ffffffffffffffffffffffffffffffffffffffff163373ffffffffffffffffffffffffffffffffffffffff161461109d576040517f08c379a00000000000000000000000000000000000000000000000000000000081526004016110949061239a565b60405180910390fd5b600360008273ffffffffffffffffffffffffffffffffffffffff1673ffffffffffffffffffffffffffffffffffffffff16815260200190815260200160002060000160009054906101000a900460ff161561112d576040517f08c379a00000000000000000000000000000000000000000000000000000000081526004016111249061231a565b60405180910390fd5b6001600360008373ffffffffffffffffffffffffffffffffffffffff1673ffffffffffffffffffffffffffffffffffffffff16815260200190815260200160002060000160006101000a81548160ff0219169083151502179055503373ffffffffffffffffffffffffffffffffffffffff167f3d8339b57365a8246ad17447ed47a6491d816985071398acb7187a65ed59f9c6826040516111ce91906121e2565b60405180910390a250565b600060019054906101000a900473ffffffffffffffffffffffffffffffffffffffff1681565b60026003811115611239577f4e487b7100000000000000000000000000000000000000000000000000000000600052602160045260246000fd5b60008054906101000a900460ff16600381111561127f577f4e487b7100000000000000000000000000000000000000000000000000000000600052602160045260246000fd5b146112bf576040517f08c379a00000000000000000000000000000000000000000000000000000000081526004016112b69061245a565b60405180910390fd5b6000600360003373ffffffffffffffffffffffffffffffffffffffff1673ffffffffffffffffffffffffffffffffffffffff16815260200190815260200160002090508060000160009054906101000a900460ff16611353576040517f08c379a000000000000000000000000000000000000000000000000000000000815260040161134a9061229a565b60405180910390fd5b8060000160019054906101000a900460ff16156113a5576040517f08c379a000000000000000000000000000000000000000000000000000000000815260040161139c906123da565b60405180910390fd5b60018160000160016101000a81548160ff02191690831515021790555060005b6001805490508110156114bc576001818154811061140c577f4e487b7100000000000000000000000000000000000000000000000000000000600052603260045260246000fd5b906000526020600020906003020160000160405161142a91906121cb565b6040518091039020838051906020012014156114a957600180828154811061147b577f4e487b7100000000000000000000000000000000000000000000000000000000600052603260045260246000fd5b9060005260206000209060030201600201600082825461149b91906125e6565b925050819055505050611543565b80806114b49061271d565b9150506113c5565b503373ffffffffffffffffffffffffffffffffffffffff167f06640b67015c37470a2bc2e00a76d594f6794fae0d12b9e206bc1bf369fe067660405160405180910390a26000611541576040517f08c379a00000000000000000000000000000000000000000000000000000000081526004016115389061233a565b60405180910390fd5b505b50565b828054611552906126eb565b90600052602060002090601f01602090048101928261157457600085556115bb565b82601f1061158d57805160ff19168380011785556115bb565b828001600101855582156115bb579182015b828111156115ba57825182559160200191906001019061159f565b5b5090506115c89190611659565b5090565b8280546115d8906126eb565b90600052602060002090601f0160209004810192826115fa5760008555611648565b82601f1061160b5780548555611648565b8280016001018555821561164857600052602060002091601f016020900482015b8281111561164757825482559160010191906001019061162c565b5b5090506116559190611659565b5090565b5b8082111561167257600081600090555060010161165a565b5090565b6000611689611684846124cb565b61249a565b9050808382526020820190508260005b858110156116c957813585016116af8882611750565b845260208401935060208301925050600181019050611699565b5050509392505050565b60006116e66116e1846124f7565b61249a565b9050828152602081018484840111156116fe57600080fd5b6117098482856126a9565b509392505050565b60008135905061172081612847565b92915050565b600082601f83011261173757600080fd5b8135611747848260208601611676565b91505092915050565b600082601f83011261176157600080fd5b81356117718482602086016116d3565b91505092915050565b60006020828403121561178c57600080fd5b600061179a84828501611711565b91505092915050565b600080604083850312156117b657600080fd5b600083013567ffffffffffffffff8111156117d057600080fd5b6117dc85828601611726565b925050602083013567ffffffffffffffff8111156117f957600080fd5b61180585828601611726565b9150509250929050565b60006020828403121561182157600080fd5b600082013567ffffffffffffffff81111561183b57600080fd5b61184784828501611750565b91505092915050565b600061185c8383611a0e565b905092915050565b60006118708383612165565b905092915050565b6118818161263c565b82525050565b60006118928261255c565b61189c8185612597565b9350836020820285016118ae85612527565b8060005b858110156118ea57848403895281516118cb8582611850565b94506118d68361257d565b925060208a019950506001810190506118b2565b50829750879550505050505092915050565b600061190782612567565b61191181856125a8565b93508360208202850161192385612537565b8060005b8581101561195f57848403895281516119408582611864565b945061194b8361258a565b925060208a01995050600181019050611927565b50829750879550505050505092915050565b61197a8161264e565b82525050565b6000815461198d816126eb565b61199781866125b9565b945060018216600081146119b257600181146119c3576119f6565b60ff198316865281860193506119f6565b6119cc85612547565b60005b838110156119ee578154818901526001820191506020810190506119cf565b838801955050505b50505092915050565b611a0881612697565b82525050565b6000611a1982612572565b611a2381856125c4565b9350611a338185602086016126b8565b611a3c81612822565b840191505092915050565b6000611a546037836125d5565b91507f4552524f52203a20506572736f6e206973206e6f7420656c696769626c65207460008301527f6f20766f746520666f722074686520656c656374696f6e0000000000000000006020830152604082019050919050565b6000611aba6037836125d5565b91507f4552524f52203a2041646d696e20697320616c6c6f77656420746f20696e697460008301527f696174652074686520766f74696e672070726f636573730000000000000000006020830152604082019050919050565b6000611b206049836125d5565b91507f4552524f52203a2043616e6e6f74206765742077696e6e65722063616e64696460008301527f6174652064657461696c73206265666f72652074686520656c656374696f6e2060208301527f697320656e6465642e00000000000000000000000000000000000000000000006040830152606082019050919050565b6000611bac6047836125d5565b91507f4552524f52203a20417267756d656e747320496e76616c6964203a204964732060008301527f616e64204e616d65732061727261797320617265206e6f74206f662073616d6560208301527f206c656e677468000000000000000000000000000000000000000000000000006040830152606082019050919050565b6000611c38602f836125d5565b91507f494e464f203a205468697320706572736f6e20697320616c726561647920656c60008301527f696769626c6520746f20766f74652e00000000000000000000000000000000006020830152604082019050919050565b6000611c9e6041836125d5565b91507f4552524f52203a20496e76616c69642063616e64696461746520496420656e7460008301527f65726564207768696c6520766f74696e6720696e2074686520656c656374696f60208301527f6e000000000000000000000000000000000000000000000000000000000000006040830152606082019050919050565b6000611d2a603c836125d5565b91507f4552524f52203a2041646d696e20697320616c6c6f77656420746f206164642060008301527f63616e6469646174657320666f722074686520656c656374696f6e2e000000006020830152604082019050919050565b6000611d906044836125d5565b91507f4552524f52203a2043616e6e6f74206d616b65206120766f74657220656c696760008301527f69626c652061667465722074686520656c656374696f6e20686173207374617260208301527f7465642e000000000000000000000000000000000000000000000000000000006040830152606082019050919050565b6000611e1c603b836125d5565b91507f4552524f52203a2041646d696e20697320616c6c6f77656420746f206d616b6560008301527f206120706572736f6e20656c696769626c6520746f20766f74652e00000000006020830152604082019050919050565b6000611e826040836125d5565b91507f4552524f52203a2054686520456c636574696f6e2063616e206e6f742062652060008301527f7374617274656420616761696e20616674657220697420697320656e6465642e6020830152604082019050919050565b6000611ee86035836125d5565b91507f4552524f52203a205468697320766f7465722068617320766f7465642065617260008301527f6c69657220696e2074686520656c656374696f6e2e00000000000000000000006020830152604082019050919050565b6000611f4e6025836125d5565b91507f4552524f52203a20456c656374696f6e20686173206e6f74207374617274656460008301527f207965742e0000000000000000000000000000000000000000000000000000006020830152604082019050919050565b6000611fb46037836125d5565b91507f4552524f52203a2041646d696e20697320616c6c6f77656420746f2066696e6160008301527f6c697a652074686520766f74696e672070726f636573730000000000000000006020830152604082019050919050565b600061201a6042836125d5565b91507f4552524f52203a2043616e6e6f74206765742063616e6469646174652064657460008301527f61696c73206265666f72652074686520656c656374696f6e20697320656e646560208301527f642e0000000000000000000000000000000000000000000000000000000000006040830152606082019050919050565b60006120a66030836125d5565b91507f4552524f52203a2043616e6e6f7420766f7465206265666f7265206f7220616660008301527f7465722074686520656c656374696f6e000000000000000000000000000000006020830152604082019050919050565b600061210c6036836125d5565b91507f4552524f52203a204e6f20766f7465722068617320766f74656420796574206960008301527f6e2074686520656c656374696f6e20736f206661722e000000000000000000006020830152604082019050919050565b600060608301600083015184820360008601526121828282611a0e565b9150506020830151848203602086015261219c8282611a0e565b91505060408301516121b160408601826121bc565b508091505092915050565b6121c58161268d565b82525050565b60006121d78284611980565b915081905092915050565b60006020820190506121f76000830184611878565b92915050565b600060408201905081810360008301526122178185611887565b9050818103602083015261222b8184611887565b90509392505050565b6000602082019050818103600083015261224e81846118fc565b905092915050565b600060408201905061226b6000830185611971565b6122786020830184611971565b9392505050565b600060208201905061229460008301846119ff565b92915050565b600060208201905081810360008301526122b381611a47565b9050919050565b600060208201905081810360008301526122d381611aad565b9050919050565b600060208201905081810360008301526122f381611b13565b9050919050565b6000602082019050818103600083015261231381611b9f565b9050919050565b6000602082019050818103600083015261233381611c2b565b9050919050565b6000602082019050818103600083015261235381611c91565b9050919050565b6000602082019050818103600083015261237381611d1d565b9050919050565b6000602082019050818103600083015261239381611d83565b9050919050565b600060208201905081810360008301526123b381611e0f565b9050919050565b600060208201905081810360008301526123d381611e75565b9050919050565b600060208201905081810360008301526123f381611edb565b9050919050565b6000602082019050818103600083015261241381611f41565b9050919050565b6000602082019050818103600083015261243381611fa7565b9050919050565b600060208201905081810360008301526124538161200d565b9050919050565b6000602082019050818103600083015261247381612099565b9050919050565b60006020820190508181036000830152612493816120ff565b9050919050565b6000604051905081810181811067ffffffffffffffff821117156124c1576124c06127f3565b5b8060405250919050565b600067ffffffffffffffff8211156124e6576124e56127f3565b5b602082029050602081019050919050565b600067ffffffffffffffff821115612512576125116127f3565b5b601f19601f8301169050602081019050919050565b6000819050602082019050919050565b6000819050602082019050919050565b60008190508160005260206000209050919050565b600081519050919050565b600081519050919050565b600081519050919050565b6000602082019050919050565b6000602082019050919050565b600082825260208201905092915050565b600082825260208201905092915050565b600081905092915050565b600082825260208201905092915050565b600082825260208201905092915050565b60006125f18261268d565b91506125fc8361268d565b9250827fffffffffffffffffffffffffffffffffffffffffffffffffffffffffffffffff0382111561263157612630612766565b5b828201905092915050565b60006126478261266d565b9050919050565b60008115159050919050565b600081905061266882612833565b919050565b600073ffffffffffffffffffffffffffffffffffffffff82169050919050565b6000819050919050565b60006126a28261265a565b9050919050565b82818337600083830152505050565b60005b838110156126d65780820151818401526020810190506126bb565b838111156126e5576000848401525b50505050565b6000600282049050600182168061270357607f821691505b60208210811415612717576127166127c4565b5b50919050565b60006127288261268d565b91507fffffffffffffffffffffffffffffffffffffffffffffffffffffffffffffffff82141561275b5761275a612766565b5b600182019050919050565b7f4e487b7100000000000000000000000000000000000000000000000000000000600052601160045260246000fd5b7f4e487b7100000000000000000000000000000000000000000000000000000000600052602160045260246000fd5b7f4e487b7100000000000000000000000000000000000000000000000000000000600052602260045260246000fd5b7f4e487b7100000000000000000000000000000000000000000000000000000000600052604160045260246000fd5b6000601f19601f8301169050919050565b6004811061284457612843612795565b5b50565b6128508161263c565b811461285b57600080fd5b5056fea264697066735822122087f620ac66f78a94d0fc61ed451afb1af85260eb8da36d8abdb3ce2e3028ef2a64736f6c63430008000033",
  "immutableReferences": {},
  "source": "// SPDX-License-Identifier: GPL-3.0\r\npragma solidity >=0.7.0 <0.9.0;\r\npragma experimental ABIEncoderV2;\r\n\r\n/// @title SecurElect Election Smart Contract\r\ncontract ElectionContract {\r\n    enum electionStatus {initialized, readyForVoting, votingStarted, votingEnded}\r\n    electionStatus public currentElectionStatus;\r\n\r\n    address public admin;\r\n\r\n    // Structure definition of the candidate\r\n    struct Candidate {\r\n        string candId;\r\n        string name; // name of the candidate\r\n        uint256 voteCount; // number of votes candidate has\r\n    }\r\n\r\n    // Array of candidates.\r\n    // Array size is dynamic so that we can use the contract for different elcetions\r\n    Candidate[] private candidates;\r\n    // Array of winner candidates\r\n    Candidate[] private winningCandidates;\r\n\r\n    // Structure definition of the voter\r\n    struct Voter {\r\n        bool eligible; // if true, then the person is eligible to vote\r\n        bool voted; // if true, then the voter has already voted\r\n    }\r\n\r\n    // Mapping of addresses(public keys) and voters.\r\n    // We can access elements of 'Voter' structure by the address of the voter\r\n    mapping(address => Voter) public voters;\r\n\r\n    // event to be emitted after successful initialization\r\n    event contractInitialized(address indexed _from);\r\n    \r\n    // candidates are added for the election\r\n    event candidatesAdded(address indexed _from, string[] candidateIds, string[] candidateNames);\r\n\r\n    // voter made eligible events\r\n    event voterMadeEligible(address indexed _from, address voterAddress);\r\n\r\n    // voted event when vote is casted successfully\r\n    event votedEvent(address indexed _from);\r\n\r\n    // Event for initialized voting process\r\n    event votingProcessIntialized(address indexed _from);\r\n\r\n    // Event for finalized voting process\r\n    event votingProcessFinalized(address indexed _from);\r\n\r\n    // constructor of election contract\r\n    constructor() {\r\n        admin = msg.sender;\r\n        voters[admin].eligible = true; // Admin can also vote in the election\r\n        \r\n        currentElectionStatus = electionStatus.initialized; // The contract is initialized.\r\n        \r\n        // Construction Successful.\r\n        emit contractInitialized(msg.sender);\r\n    }\r\n    \r\n    // candidates names are taken dynamically so that we can use the contract for different elcetions\r\n    function addCandidateForElection(string[] memory candidateIds, string[] memory candidateNames) public {\r\n        // Message sender must be admin because only admin can add the candidates for election\r\n        require(\r\n            msg.sender == admin,\r\n            \"ERROR : Admin is allowed to add candidates for the election.\"\r\n        );\r\n        \r\n        require(\r\n            candidateIds.length == candidateNames.length,\r\n            \"ERROR : Arguments Invalid : Ids and Names arrays are not of same length\"\r\n        );\r\n        // Adding objects of the candidates in the array from the givan names.\r\n        for (uint256 i = 0; i < candidateNames.length; i++) {\r\n            candidates.push(\r\n                Candidate({\r\n                    candId: candidateIds[i],\r\n                    name: candidateNames[i],\r\n                    voteCount: 0\r\n                })\r\n            );\r\n        }\r\n        currentElectionStatus = electionStatus.readyForVoting; // The voting process can be started now.\r\n        \r\n        // successfully added candidates.\r\n        emit candidatesAdded(msg.sender, candidateIds, candidateNames);\r\n    }\r\n\r\n    // Making the voter eligible to vote for the election\r\n    function makeVoterEligible(address voterAddress) public {\r\n        // Admin can make voter eligible only before the election is started\r\n        require(\r\n            currentElectionStatus == electionStatus.readyForVoting,\r\n            \"ERROR : Cannot make a voter eligible after the election has started.\"\r\n        );\r\n\r\n        // Message sender must be admin because only admin can make a person eligible for voting\r\n        require(\r\n            msg.sender == admin,\r\n            \"ERROR : Admin is allowed to make a person eligible to vote.\"\r\n        );\r\n        // require(\r\n        //     !voters[voterAddress].voted,\r\n        //     \"ERROR : This voter has voted in this election.\"\r\n        // );\r\n        // above condition is not needed to check, hence commented in order to avoid confusion\r\n        require(\r\n            !voters[voterAddress].eligible,\r\n            \"INFO : This person is already eligible to vote.\"\r\n        );\r\n        voters[voterAddress].eligible = true; // Making voter Eligible to vote\r\n    \r\n        // successfully made voter eligible\r\n        emit voterMadeEligible(msg.sender, voterAddress);\r\n    }\r\n\r\n    // Voting function\r\n    function vote(string memory candidateId) public {\r\n        // Voter can only vote after the elction has started and before ended\r\n        require(\r\n            currentElectionStatus == electionStatus.votingStarted,\r\n            \"ERROR : Cannot vote before or after the election\"\r\n        );\r\n\r\n        Voter storage voteSender = voters[msg.sender];\r\n        require(\r\n            voteSender.eligible,\r\n            \"ERROR : Person is not eligible to vote for the election\"\r\n        );\r\n        require(\r\n            !voteSender.voted,\r\n            \"ERROR : This voter has voted earlier in the election.\"\r\n        );\r\n        voteSender.voted = true; // Making sure that one voter only votes once.\r\n\r\n        for (uint256 j = 0; j < candidates.length; j++) {\r\n            if (keccak256(bytes(candidateId)) == keccak256(bytes(candidates[j].candId))) {\r\n                candidates[j].voteCount += 1;\r\n                return;\r\n            }\r\n        }\r\n\r\n        emit votedEvent(msg.sender); // Voted successfully event\r\n\r\n        require(\r\n            false,\r\n            \"ERROR : Invalid candidate Id entered while voting in the election\"\r\n        ); // Program reaches here only when invalid ID is entered.\r\n    }\r\n\r\n    // returning the candidate details.\r\n    function getCandidateDetails()\r\n        public\r\n        view\r\n        returns (Candidate[] memory candidateDetails)\r\n    {\r\n        // Winner candidate can be get only when the election is ended.\r\n        require(\r\n            currentElectionStatus == electionStatus.votingEnded,\r\n            \"ERROR : Cannot get candidate details before the election is ended.\"\r\n        );\r\n\r\n        candidateDetails = candidates;\r\n    }\r\n\r\n    // returning the candidate details of the winner.\r\n    function getWinnerCandidateDetails()\r\n        public\r\n        view\r\n        returns (Candidate[] memory winnerCandidates)\r\n    {\r\n        // Winner candidate can be get only when the election is ended.\r\n        require(\r\n            currentElectionStatus == electionStatus.votingEnded,\r\n            \"ERROR : Cannot get winner candidate details before the election is ended.\"\r\n        );\r\n\r\n        winnerCandidates = winningCandidates;\r\n    }\r\n\r\n    // changing the status of election from 'readyForVoting' to 'votingStarted'\r\n    function initializeVotingProcess() public {\r\n        // Message sender must be admin because only admin can initiate the voting process\r\n        require(\r\n            msg.sender == admin,\r\n            \"ERROR : Admin is allowed to initiate the voting process\"\r\n        );\r\n\r\n        // Election must not be ended.\r\n        require(\r\n            currentElectionStatus != electionStatus.votingEnded,\r\n            \"ERROR : The Elcetion can not be started again after it is ended.\"\r\n        );\r\n        currentElectionStatus = electionStatus.votingStarted;\r\n\r\n        emit votingProcessIntialized(msg.sender);  // successfully initialized voting process\r\n    }\r\n\r\n    // changing the status of election status from 'votingStarted' to 'votingEnded'\r\n    // Comparing the voteCount of canidates and setting the winner candidateId\r\n    function finalizeVotingProcess() public {\r\n        // Message sender must be admin because only admin can finalize the voting process\r\n        require(\r\n            msg.sender == admin,\r\n            \"ERROR : Admin is allowed to finalize the voting process\"\r\n        );\r\n\r\n        require(\r\n            currentElectionStatus == electionStatus.votingStarted,\r\n            \"ERROR : Election has not started yet.\"\r\n        );\r\n        currentElectionStatus = electionStatus.votingEnded;\r\n\r\n        uint256 maxVoteCount = 0; // to keep track of maximum votes so far\r\n\r\n        // Finding the maximum votes and its candidate index\r\n        for (uint256 k = 0; k < candidates.length; k++) {\r\n            if (candidates[k].voteCount > maxVoteCount) {\r\n                maxVoteCount = candidates[k].voteCount;\r\n            }\r\n        }\r\n\r\n        require(\r\n            maxVoteCount != 0,\r\n            \"ERROR : No voter has voted yet in the election so far.\"\r\n        );\r\n\r\n\r\n        // Loop is used to handle \"TIE\" condition between multiple candidates.\r\n        // Adding candidate IDs to the winning list.\r\n        for (uint256 l = 0; l < candidates.length; l++) {\r\n            if (candidates[l].voteCount == maxVoteCount) {\r\n                winningCandidates.push(candidates[l]);\r\n            }\r\n        }\r\n\r\n        emit votingProcessFinalized(msg.sender);  // successfully finalized voting process\r\n    }\r\n}",
  "sourcePath": "D:/GITHUB_REPO/Blockchain_Based_Election_System/Blockchain_Based_Election_System/SecurElect/smart-contracts/contracts/ElectionContract.sol",
  "compiler": {
    "name": "solc",
    "version": "0.8.0+commit.c7dfd78e.Emscripten.clang"
  },
  "schemaVersion": "3.3.3",
  "updatedAt": "2021-02-17T07:06:10.372Z",
  "networkType": "ethereum",
  "devdoc": {
    "kind": "dev",
    "methods": {},
    "title": "SecurElect Election Smart Contract",
    "version": 1
  },
  "userdoc": {
    "kind": "user",
    "methods": {},
    "version": 1
  }
}